:020000022000DC
:1070000000000420A9AA0300E9AA0300EBAA0300D8
:10701000EDAA0300EFAA0300F1AA0300000000009C
:1070200000000000000000000000000035A903007F
:10703000F5AA03000000000055A90300F9AA030007
:10704000FDAC0300FBAA0300FBAA03001513030019
:10705000C9130300FBAA0300FBAA0300FBAA030059
:10706000FBAA0300FBAA0300FBAA0300FBAA030080
:10707000FBAA0300FBAA0300FBAA0300FBAA030070
:10708000FBAA030085A60300FBAA0300FBAA0300DA
:10709000FBAA0300FBAA0300D9AB0200FBAA030072
:1070A000FBAA0300FBAA0300FBAA0300FBAA030040
:1070B000FBAA0300FBAA0300000000000000000080
:1070C000FBAA0300FBAA0300FBAA030011B2030002
:1070D000FBAA0300FBAA0300FBAA030041CD0200A8
:1070E000FBAA0300FBAA0300FBAA030000000000A8
:1070F00000000000FBAA03000000000089B20300AA
:10710000000000000000000000000000000000007F
:10711000000000000000000000000000000000006F
:10712000000000000000000000000000000000005F
:10713000000000000000000000000000000000004F
:10714000000000000000000000000000000000003F
:10715000000000000000000000000000000000002F
:10716000000000000000000000000000000000001F
:10717000000000000000000000000000000000000F
:1071800000000000000000000000000000000000FF
:1071900000000000000000000000000000000000EF
:1071A00000000000000000000000000000000000DF
:1071B00000000000000000000000000000000000CF
:1071C00000000000000000000000000000000000BF
:1071D00000000000000000000000000000000000AF
:1071E000000000000000000000000000000000009F
:1071F000000000000000000000000000000000008F
:10720000F1EE103A43F08073E1EE103A704700BFA0
:1072100010B5054C237833B9044B13B10448AFF3D0
:1072200000800123237010BD9C6600200000000038
:107230008470040008B5034B1BB103490348AFF346
:10724000008008BD00000000A066002084700400DB
:10725000154B002B08BF134B9D46A3F5803A002128
:107260008B460F461348144A121A19F03BFD0F4B78
:10727000002B00D098470E4B002B00D098470020E1
:10728000002104000D000D48002802D00C48AFF387
:10729000008019F0BDFC2000290013F05DFC19F0FE
:1072A00091FC00BF00000800000004200000000066
:1072B000000000009C660020FC9D002000000000F3
:1072C00000000000704700BF194EDFF87090194DA4
:1072D000194C80B54FF00008012786F8008011F0A6
:1072E0007DF803462046C9F800300AF0DFFB03466C
:1072F00020462B600AF0F8FB034620466B600AF03C
:1073000011FC03462046AB600AF02AFC03462046E7
:10731000EB600AF043FC034620462B610AF05CFC5C
:10732000034683206B61377012F0E0FBD5E700BFA6
:10733000F46800208469002040690020386900203A
:107340002DE9F04E2DED028BDFF89090DFF890A044
:10735000DFF884B01E4F9FED1F8A82B0D9E9061373
:10736000D9E902650193D9F80020D9F804309AEDE3
:10737000007A1A44D9E90440164435442C44019B50
:1073800020440144C91848BF0731C91007EE901ABC
:1073900027EE087AF8EEE77A0F4B67EE877A00223D
:1073A00002E00132632A11D093ED007AF4EEC77A3D
:1073B000F1EE10FA03F10803F3DB0BEBC2025368A2
:1073C0003B604FF4836012F091FBC7E70023F7E7BF
:1073D00068690020E5DE443B08600020B8660020B4
:1073E0003463002008B50B4C0B4E202014F0DEFB5C
:1073F00021684B1C5A4202F00702054603F00703BE
:107400004FF0830058BF534246F82150236012F0DA
:107410006DFBEAE71C690020B866002010B5014644
:1074200088B0104C104803F0CFFB0023202269469F
:10743000CDE90033CDE90333CDE90533029307935A
:1074400001F002FD0949204610F090FC69462046F3
:1074500010F0BAFC6946202205481AF038FB08B043
:1074600010BD00BF2C720020B469002058420400F7
:10747000FC6800202DE9F04F4C4F4D4D8BB03C4641
:1074800006E02146284610F049FE0A2012F02EFBA5
:107490002946204610F024FF80460028F5D1BE681A
:1074A000132EEED10421204610F036FF2F28E8D10C
:1074B0000721204610F030FF2F28E2D10A21204674
:1074C00010F02AFF2028DCD10D21204610F024FFE7
:1074D0003A28D6D11021204610F01EFF3A28D0D1EC
:1074E00042462146042307A810F02EFF07A810F0FB
:1074F00059FF814607A810F009FE214607230522FF
:1075000007A810F021FF07A810F04CFF824607A83B
:1075100010F0FCFD21460A23082207A810F014FFF2
:1075200007A810F03FFF834607A810F0EFFD2146A3
:107530000B220D2307A810F007FF07A810F032FF59
:10754000034607A8059310F0E1FD214610230E2203
:1075500007A810F0F9FE07A810F024FF804607A83E
:1075600010F0D4FD33462146112207A810F0ECFE9E
:1075700007A810F017FF064607A810F0C7FDF6B2DF
:107580009DF8143000935FFA88F2CDE901261FFAC6
:1075900089F15FFA8BF35FFA8AF207A809F05CFCC5
:1075A000044807A909F03CFB6BE700BF6C690020A9
:1075B0002C690020786900202DE98048DFF868A058
:1075C000DFF86890DFF86880134F144E144D154CA7
:1075D000DFF860B083B05946684609F02DFB9DF88E
:1075E00000309DF801009DF802E09DF803C09DF871
:1075F00004109DF8052003F5FA63CAF80030C9F8B5
:1076000000002068C8F800E0C7F800C031602A60B8
:1076100012F06CFADFE700BF2C6300203C69002009
:10762000806900200460002038630020306300205F
:107630002863002078690020704700BF2DE9F041E1
:10764000DFF8D480264C274D2749284F284E404646
:1076500010F082FC22462946404618F02BFF6A2291
:1076600000212448DFF8B48009F04AFF384603F0CF
:1076700027FC22462049384618F01CFF1F4F304691
:1076800003F0B8FC22461E49304618F013FF1D4E89
:1076900038464FF4807104F003F922461A493846FF
:1076A00018F008FF194F304603F0F2FA2246184945
:1076B000304618F0FFFE174E3946404610F04CFC9D
:1076C00022462946404618F0F5FE3946304610F06D
:1076D00043FC224629463046BDE8F04118F0EABE98
:1076E000006000200D81030068420400486700200C
:1076F000B867002040690020C97B020000680020B4
:10770000B17B0200D866002035B902006C4D040040
:10771000897B02002C690020206900206C69002010
:107720002DE9F04F614FDFF8C081614EDFF8BCA159
:10773000604DADF2044D02E0832012F0D7F93B78A2
:10774000002BF9D0D8F800000A2111F08DFB012898
:10775000F2D14FF47972002107A8069119F0C2FA0C
:107760005146684610F012FC2946684610F06CFD40
:10777000514B524C19680A2203A810F021FC03A9AE
:10778000684610F03DFD03A810F0C0FC4C49684667
:1077900010F05AFD4B480AF03DFA022103A810F000
:1077A00077FC03A9684610F02BFD03A810F0AEFC8F
:1077B0004549684610F048FD444B0A22196803A861
:1077C00010F0FEFB03A9684610F01AFD03A810F0A4
:1077D0009DFC3F49684610F037FD3E4B0A22196870
:1077E00003A810F0EDFB03A9684610F009FD03A8FB
:1077F00010F08CFC3649684610F026FD364B0A2204
:10780000196803A810F0DCFB03A9684610F0F8FC27
:1078100003A810F07BFC2946684610F015FD2F4B9D
:107820000A22196803A810F0FFFB03A9684610F0AC
:10783000E7FC03A810F06AFC2946684610F004FD36
:1078400054F8041B0A2203A810F0BAFB03A96846E7
:1078500010F0D6FC03A810F059FCB442ECD120493A
:10786000684610F0F1FCDDF808B0BBF1000F0CDD4C
:107870000DF1180900242146684610F057FD013427
:10788000037809F8013BA345F5D15A4606A91548E6
:1078900003F080FE0023D8F800003B701A4619461A
:1078A00010F0BAFE684610F031FC45E7F46800209D
:1078B0009C690020704204006869002084690020EF
:1078C00074420400406900207842040038630020BC
:1078D0007C420400306300202863002038690020C7
:1078E0008042040000680020F86800202069002021
:1078F00000B50C4C0C4E85B004F11805204603F081
:107900001FFC0346294601A843B110F0F1FA01A972
:10791000304610F029FC01A810F0F8FB0A2012F004
:10792000E5F8EBE7006800206C690020F8B5304C02
:10793000304D314E314F2046012103F003F92046EE
:10794000042102F0C3FE00222046012102F0EEFED7
:107950002046042103F0A8F8294B2046196803F0BB
:107960007BF82046274901F0B7FC2749204601F063
:10797000B5FC264803F0CAFA28462549182203F028
:1079800035FB13222349284603F02CFB284603F03D
:1079900067FB304604F012F8384604F5C86503F07A
:1079A0009BF93846642103F06BF90621284600F064
:1079B000BDF9284600F0A2F93146284600F05AF9F0
:1079C00004F27C6000F06CF92846012100F0E0F937
:1079D0002846F422202100F0D7F928461E2100F085
:1079E000D1F928460021BDE8F84000F031BA00BFC7
:1079F000B4690020B867002000680020D866002025
:107A0000206900201D740200C57202004867002032
:107A100084420400A042040070B5012186B00E200B
:107A200014F0F2F800210E2014F072F93D483E4E99
:107A30003E4D3F4C09F066FEFFF778FF4FF47A7039
:107A400010F0D8FC3B4A3C4904A809F01BFA04A9F1
:107A5000304609F0E5F83949394A3A4B3A4809685D
:107A600012681B682D6824680068EDB2E4B2C0B2E9
:107A7000CDE90054D2B2DBB2029089B204A809F079
:107A8000EBF904A9304609F0CBF8012010F0AAFF69
:107A90002E4B2F490024024607251A602D480194D9
:107AA000234600954FF47A7211F0F8FC0522234624
:107AB0000092294901944FF47A72284811F0EEFCA3
:107AC0002346CDE90054264926484FF4807211F030
:107AD000E5FC0622234600922349019464222348B0
:107AE00011F0DCFC042223460092214901944FF45A
:107AF0008072204811F0D2FC0322234600921E49D6
:107B000001944FF47A721D4811F0C8FC01220092D2
:107B10001B49019423464FF480721A4811F0BEFCB1
:107B200006B070BD40690020786900202C630020F9
:107B30003C690020B4420400C042040038630020C5
:107B4000306300202863002080690020F86800204E
:107B5000CC420400C9720200D8420400217702001E
:107B6000E8420400B9750200F4420400E573020023
:107B7000044304004173020014430400F17802003E
:107B8000204304007574020010B5074B044640F80A
:107B9000183B00F0B3FA2046044B40F8083B02F0D3
:107BA000B3FA204610BD00BF204404007C4304000B
:107BB00010B5044B044640F8083B02F0A5FA2046F5
:107BC00010BD00BF7C43040010B5074B044640F8CD
:107BD000183B00F093FA2046044B40F8083B02F0B3
:107BE00093FA204610BD00BF744404007C43040097
:107BF00072DF704773DF704777DF704738B505462F
:107C000008460C4602F0AEFA102803D080280ED0A9
:107C1000012038BDEB7FA2881B2B0EDCE918032066
:107C2000E85448704A80EB7F0433EB77F0E7A368B1
:107C3000002BEDD0E97F0D2901DD002038BD6A1849
:107C4000112068540721517058681C689968DB68D6
:107C5000C2F80E30C2F80600C2F80240C2F80A109C
:107C6000EB7F1233EB77012038BD00BF0022C277D3
:107C70000270704730B5D1E9042485B0CD68074B58
:107C800000936946CDE902240195FFF7B7FF04464A
:107C9000684602F039FA204605B030BD944304002E
:107CA000F0B589B0064620221348694602F0E8FE86
:107CB000F37FC2181D2A0CDDC3F11D04E4B2E218E3
:107CC0001D2A4FF00005D8BF082705DD284609B05A
:107CD000F0BD044601250927F218601CF0546946DE
:107CE0005770901C224618F0D5FFF27F02321444E0
:107CF0002846F47709B0F0BDB469002010B50446F9
:107D0000094802F01BFFE37F1C2B01DD002010BDA2
:107D1000E2180221E1540A2390705370E37F033389
:107D2000E377012010BD00BFB4690020C27F1C2A88
:107D300001DD0020704710B403469C1802209854BF
:107D40000120A1706070DA7F0332DA775DF8044BAE
:107D5000704700BF10B4084A084C0949026200226B
:107D6000C0E90A41C0E90C225DF8044B0270C277F9
:107D700042628263704700BFFF0101002000F400EF
:107D800020001E00C18570470185818542857047AE
:107D900080F82210704700BFF0B5154605EB85034B
:107DA000274A89B0044603EB830300200E469B005C
:107DB00011680290CDE90460ADF8143094F82130D8
:107DC0008DF80830CB07CDE90600039009D41D4992
:107DD0001D4BC87FE77F988101201C6099609F80C0
:107DE0001060194902AA04F12000FFF701FF10B149
:107DF000002009B0F0BD94F820101448019102F061
:107E00009DFE019902460120FFF7F6FE0028EFD102
:107E100094F820000121FFF7EDFE0028E8D10B487F
:107E200002F0EAFE628EA68595424FF0010094BFF3
:107E3000521B921A628684F8230009B0F0BD00BF7D
:107E40009C69002030700020A0690020B4690020E7
:107E5000F0B5002361F30F032D4D044661F31F437A
:107E600089B00363FA21284602F070FEE68D2949A5
:107E7000278D0868049706EB860303EB8303002233
:107E80009B000592ADF8143094F8213002928DF8E1
:107E90000830C307CDE9062203920BD41E4BE27FC4
:107EA00095F89B069A8005F27C6501221C609D6016
:107EB00098810A60184902AA04F12000FFF798FE91
:107EC00010B1002009B0F0BD94F8201010480191C5
:107ED00002F034FE019902460120FFF78DFE0028D2
:107EE000EFD194F820000121FFF784FE0028E8D1AB
:107EF000074802F081FE638EA7859E424FF0010085
:107F000094BF9B1BDB1A638684F8230009B0F0BD85
:107F1000B46900209C690020A069002030B50B885E
:107F20008D88112B85B0044605D0262B33D0102B1D
:107F300025D005B030BD436AEB40DB07F9D52E48AC
:107F400001F0AAF90028F4D1636A94F82310012201
:107F500002FA05F523EA050363620029E9D194F8E2
:107F60002230002BE5D0238E23486386FA2102F0CD
:107F7000EDFDE28D218D2046FFF70EFFD9E7CB7B8B
:107F8000012BD6D1426A03FA05F515430023456259
:107F900080F82330CDE70B7A012BCAD1002380F87B
:107FA00023304FF4FA71144802F0D0FD238E5BB1F8
:107FB000658E95B1A36B0BB19847658E618D2A468E
:107FC0002046FFF7E9FEB4E7A36B03B19847618D44
:107FD00000222046FFF7E0FEABE7074802F020FE54
:107FE000626B002AA5D0009503AB2946284603956D
:107FF00013F022FB9DE700BFB469002075DF7047D6
:1080000010B44FF010144FF448010022C0E90041B1
:10801000C0E902225DF8044B704700BF014800F040
:1080200041BF00BFA4700020F8B500250D4F2E46BB
:1080300001E0142D14D0A9B2384602F0C5FD013577
:1080400004460028F5D000F0D1FD0028F1D02046EC
:1080500000F0D6FD022804BF0136F6B2142DEAD195
:108060003046F8BDB469002070B58E881B480C46B8
:1080700094B0314602F0A8FD23881A2B05D01F2B9F
:108080001CD0102B0FD014B070BD054600F0B0FD11
:108090000028F8D0284600F0ADFD0028F3D128468E
:1080A00000F018FEEFE7694600F0FCFD0028EAD07A
:1080B0006A4631460A4801F087FCE4E754F8080FA5
:1080C00061686B4603C33046BDF80030ADF802303E
:1080D0006946FFF793FF14B070BD00BFB46900207C
:1080E000D4690020AADF7047ABDF7047ACDF704770
:1080F000ADDF7047AEDF7047B0DF704710B5044B9F
:10810000044640F8043B01F0FFFF204610BD00BFCD
:108110004C43040010B5054B044640F8043B01F005
:10812000F3FF204612F05AFD204610BD4C430400D8
:1081300070B57B4B04461B68836196B0043002F037
:1081400021F894F82E30A06913F0320208BF84F8A9
:108150002F2013F00C0308BF84F830300DF101021A
:10816000694601F0C7FF94F82F209DF8010015071C
:108170000DD09DF8001002F00F0301F00F059D4295
:108180004FEA12126DD243EA021284F82F2094F8BB
:10819000303019070BD003F00F0100F00F058D42AE
:1081A0004FEA131369D241EA031384F8303094F88C
:1081B0002E1011F0300340F096800FAD0F93C5E9FB
:1081C0000133C5E903338DF83C10AB610021ADF8F4
:1081D00009109DF80A10206A1493012363F34201E9
:1081E0008DF808208DF80A1008B1037873BB94F855
:1081F000263013B104F12603129394F831200023A2
:10820000D2070893079358BFE38AADF81C3004F1F6
:10821000080004F12F01CDE9050154BF1846E08A9A
:10822000ADF82000294604F13203E569099505AA55
:108230000020FFF757FF054628B994F8253043BBC7
:10824000237D002B64D0284616B070BD109019F025
:1082500036FC02AB80B2ADF84400ADF84600139393
:10826000C5E74FEA111101D191428CD30A462B4642
:1082700043EA021284F82F2089E74FEA101001D157
:10828000984290D30346294641EA031384F83030DC
:108290008DE7ADF80D009DF80E2094F82F600C903E
:1082A000012363F3420242F608118DF80E208DF887
:1082B000123004AA0223ADF8101003A90D90ADF8F6
:1082C0003030ADF834300A9204F124030B910DF1F3
:1082D00002020AA98DF80C600E93FFF705FF002833
:1082E000AED00546AFE70F4B8DF805200FAD1B78DC
:1082F0008DF80430022000230F938DF80600C5E9A5
:108300000133C5E90333AB618DF83C1001AB5DE788
:108310002146054800F082FF284616B070BD00BF18
:10832000B069002040430400F46D00202DE9F041C5
:108330000B888E88502B8AB00C46054609D0512BED
:1083400004D18B79012B19D0022B26D00AB0BDE8BD
:10835000F081CB88428E9A4235D0EA8E9A42F5D18E
:108360006B6D002BF2D095F84420648A920700F1DF
:108370008A802246294630469847E7E7836C002BDF
:10838000E4D090F84420520701F108076CD43A4633
:10839000294630469847A379D6E7A27B042A46D0DF
:1083A000062A20D0012AD1D1EB6C002BCED095F833
:1083B0004420170704F1080400F1A580224629464D
:1083C00030469847C2E7076D002FC6D090F844307A
:1083D000D90768D404F11208238A42462946304658
:1083E000B847E388B9E7EA6B002AAFD0002202A9B8
:1083F0003046CDE90222CDE90422ADF80C208DF8FB
:108400000830FFF779FE2C6D54B195F84430D80749
:1084100000F19280B5F84230EA6B30462946A04719
:10842000E86B10F01DF80023C5E90F338EE7E86B09
:10843000002878D0B5F84010278A628A07EB020C32
:1084400000234FF0020E8C45CDE90633CDE9083309
:108450008DF818E039DD40F20913ADF81C3006A99B
:108460003046FFF749FE71E703211A46009106AB3B
:1084700008213846CDE90665089713F0DDF8002895
:1084800089D1AB6C83E7032000211A46009006AB2C
:108490000846CDE90665089413F0CEF800287FF46D
:1084A00055AF6B6D65E7218A069604F11208042327
:1084B00000933A46404606ABCDE90881079513F094
:1084C000BBF800288DD12F6D86E79DF81EC0ADF852
:1084D0001C3004F114014CF001033844ADF82220A3
:1084E0008DF81E300991ADF8207018F0D3FB238A67
:1084F000618AB5F842200B449BB2934238BF1346C1
:10850000A5F84230ABE703211A46009106AB0E21D5
:108510002046CDE90665089413F08EF800287FF414
:1085200015AFEB6C4AE74FF480600FF07FFF4FF41C
:108530008061C5E90F017FE7E86BB5F84210069648
:1085400004230093224606ABCDE90750099113F0AE
:1085500073F800287FF464AF2C6D5BE72DE9F04FD2
:108560000F464FF6FF718F4289B0064615461C46EE
:1085700026D0F18A96F82E308C4228BF0C46DB06B6
:1085800015D40DF1100B8C4228BF0C464FF000089B
:10859000718EADF810405A464FF6FF700595ADF854
:1085A0001280FFF7A3FD404609B0BDE8F08F3948BF
:1085B000394602F0F1FA08B1F18E31B9F18AE0E7FB
:1085C000344802F0F5FA0746D3E7002002230DF104
:1085D000100BADF81200ADF810305A460DF10E0335
:1085E00038460593FFF784FD43F2014398424FD08C
:1085F00000284AD19DF80E8008F00108B8F1000F5C
:1086000046D02448394602F0DFFA8246A0B300F093
:10861000F9FA033883B2002CC5D0CDF804804FF0AE
:108620000009984605E0BDF80E30E41AA4B21D44D6
:1086300044B3504600F004FBA04503464246594669
:1086400028BF22463846BBB1ADF80E204FF00102DC
:10865000738E8DF812200DF10E02CDE90625CDF8AE
:1086600013908DF81790ADF81030FFF743FD0028F8
:10867000D9D0504600F0EEFA4FF00008404609B05D
:10868000BDE8F08FDDF804808DE700F00108B5E764
:10869000F18A78E7B469002010B5154B044640F81C
:1086A000043B01F039FD134A0023127884F844306A
:1086B00014200321A384C4F82630C4F82A3084F897
:1086C0002E30E082C4E90F33C4E91233C4E9143315
:1086D00084F831102375A3612362E36163866363C9
:1086E000238784F82F2084F83020204610BD00BF57
:1086F0004C4304004043040070B44E68164A866040
:108700000260D1E90262154B154D1C78456002618B
:10871000142500220321C0E90F22C0E91222C0E97A
:108720001422C660C58280F8311080F8442002759A
:10873000826102628284C0F82620C0F82A2080F874
:108740002E20C26142864263028780F82F4080F863
:10875000304070BC704700BF4C43040040430400ED
:108760009443040010B4D1E90142CB680361C0E92D
:1087700002425DF8044B704780697047012303751E
:10878000704700BF80F82E10704700BFC18270474D
:1087900041B190F83130C182002262F3000380F8C9
:1087A0003130704790F83130012262F3000380F8D5
:1087B0003130704780F82F1080F83020704700BFAC
:1087C00090F84430016562F3000380F8443070474C
:1087D00010B490F8443090F83140C164003918BFAB
:1087E000012161F3041462F3C30380F8314080F87F
:1087F00044305DF8044B70470162704751F8322FE6
:10880000026049684160704730B5C48A83B09442C1
:1088100023460D4628BF1346418E019500246A4623
:108820004FF6FF70ADF80030ADF80240FFF75EFC88
:1088300018B9BDF8000003B030BD204603B030BD0C
:1088400030B5C38A85B00A46012B28BF0123418E6B
:108850008DF8072000240DF1070502AA4FF6FF70DE
:10886000ADF80830ADF80A400395FFF73FFC18B9A2
:10887000BDF8080005B030BD204605B030BD00BFD2
:1088800030B5C38A85B00A46022B28BF0223418E29
:10889000ADF8062000240DF1060502AA4FF6FF7080
:1088A000ADF80830ADF80A400395FFF71FFC18B982
:1088B000BDF8080005B030BD204605B030BD00BF92
:1088C00090F82E3013F0100301D11846704730B5E0
:1088D000044685B011480D4602F05EF910B1E18EF4
:1088E00011B9084605B030BD0DF106032846002435
:1088F000022502AA0393ADF80A40ADF80850FFF72D
:10890000F7FB43F20143984206D008B99DF80600F0
:1089100000F0010005B030BD2046E3E7B469002057
:1089200010B490F82E4014F0100403D05DF8044BFE
:10893000FFF714BE20465DF8044B7047A1DF704777
:10894000A3DF7047A4DF704700238383704700BF15
:10895000006A00F0E3B800BF808B70472DE9F0415A
:108960000B88CE88382B86B00C46054606D0392BAE
:1089700066D0362B43D006B0BDE8F08100F1240765
:10898000002E36D10A8A3846314603F0DBF894F8D7
:108990000C80B8F1010F2CD0B8F1040FEBD1286A8C
:1089A00000F0BCF801465C4802F00EF900F02AF92C
:1089B0002A8E053883B2934228BF1346002B00F05D
:1089C0009A80218AE289286AAC8B8DF80D600A446E
:1089D000E96A05918DF80C80ADF81230ADF81020E1
:1089E000ADF80E4000F09AF803A9FFF7A9FF0028A0
:1089F000C1D0384603F0BEF806B0BDE8F081006A89
:108A000000F08CF80146444802F0DEF800F0FAF875
:108A100007466EBB05F12406E289304604F11001D9
:108A200003F090F82B8E2BB1F81EE38980B2013849
:108A3000834255DA304603F09DF806B0BDE8F08178
:108A40000B7B012B1AD0022B95D1836B002B92D07C
:108A500090F83C208F8892071FD401F11006E2891C
:108A600031462846984761893846FFF76BFF82E711
:108A700005F12407384603F07DF8BDE7436B002B72
:108A80003FF479AF90F83C20D10717D404F11006D9
:108A9000E2893146284698476DE7C989039004F179
:108AA000100603201A46009003AB3046CDE904615E
:108AB00012F0C2FD0028D6D1AB6BD0E7E18903905C
:108AC00004F1100603201A46009003AB3046CDE9AE
:108AD000046112F0B1FD00287FF44DAF6B6BD7E756
:108AE000286A00F01BF86A8EA98B92B2FFF726FF66
:108AF00000289FD13FE7AA8B286AADF80E2040F2EC
:108B00000511ADF80C10CDE9043300F007F803A906
:108B1000FFF716FF6DE700BFB4690020808870473B
:108B200076DF70478FDF704790DF7047B1DF7047A7
:108B3000B5DF704710B5074B03600446806A10F03C
:108B40000FFBE06A10F00CFB206B08B110F008FB83
:108B5000204610BD6443040010B5094B0360044671
:108B6000806A10F0FDFAE06A10F0FAFA206B08B1A2
:108B700010F0F6FA204612F031F8204610BD00BF82
:108B80006443040070B504460D4692E80300A580D6
:108B90000E0CA061A183144DA67717201B215689C6
:108BA0002560E0809589D089E181D17965810122B4
:108BB00022752274A08161741846194626819DF899
:108BC00010500FF0F7FC2946A06228460FF0F2FC87
:108BD0004FF4885100234FF6FF72E182E062628217
:108BE00023636375204670BD64430400007D7047B5
:108BF000407D7047C07D113818BF0120704700BF0D
:108C0000407C7047C0887047008970474B7D10B426
:108C10004BB11F310C688A888B79046082805DF8C3
:108C2000044B837170471831F4E700BF08B5132176
:108C30008088FFF775FFB0FA80F0400908BD00BFDB
:108C400008B56621806A10F00FF9003818BF0120BE
:108C500008BD00BF08B500231A461946806A0FF008
:108C6000DBFC003818BF012008BD00BF818800F17F
:108C70001F02407C02F0C4BF38B50A4605460C46C8
:108C80008188407C02F0A8FF2146012051F8483F2E
:108C9000C5F81F308B888A7985F82520A5F8233000
:108CA000687538BD38B50A4604460D4600F118010E
:108CB000407C02F0DBFF607550B1294651F8483F17
:108CC000C4F81F308B888A7984F82520A4F82330D3
:108CD00038BD00BF10B5447D24B100F11F01407CB8
:108CE00002F0A2FF204610BD70B50B88113B82B088
:108CF0000C460546462B2BD8DFE803F0383B2A2AE2
:108D00002A2A2A2A2A422A2A2A2A2A2A50585E64E9
:108D10002A2A2A2A2A2A2A2A2A2A2A2A2A2A2A2AB3
:108D20002A2A2A2A2A672A942A2A2A2A2A2A2A2AFC
:108D30002A2A2A2A2A2A2A2A2A2A2A2A2A246A2A59
:108D4000752C84000023A8881A461946FFF7EEFE0A
:108D500002B070BD8B79002BFAD1006BAB75002887
:108D6000F6D01A4619460FF057FCF1E700230375B9
:108D7000EEE74B8903818B894381CB898381E7E7C8
:108D80000B7AC375112BE3D0818800F11F02407C60
:108D900003F024F803460028DAD1D4E7002301A920
:108DA0008088ADF80430FFF7BDFED1E70B7A002BC9
:108DB000CED14B7A0374CBE7002211468088FFF7AF
:108DC000B3FEC5E70B89C381C2E74B89C380BFE708
:108DD000006B0123AB750028BAD000231A46194650
:108DE0000FF01AFCB4E7417C164801F0E5FEE38879
:108DF0000146994228BF194689B2A888E980FFF741
:108E000097FEA5E78B79002BA2D0002600231A46F7
:108E10001946A86A0FF000FC0136A279F3B29A4213
:108E2000F4D895E78B7A002B92D0002600231A46BF
:108E30001946E86A0FF0F0FB0136A27AF3B29A42C3
:108E4000F4D885E7B469002070B58AB086880B46EF
:108E500006A84FF42851144605934FF6FF7501F00C
:108E600065F90120CDE90105059B0094314606AA6C
:108E7000044800F06FF8044606A801F045F92046C2
:108E80000AB070BDF46D002010B50446043002F045
:108E9000F5FD034B236000232375204610BD00BF62
:108EA0000100FFFF017D01B1704710B50446043099
:108EB00002F0EEFD0123237510BD00BF007D704759
:108EC0000B88322B10B504D0332B17D0302B08D0A1
:108ED00010BDCB88DBB1041D2046BDE8104002F078
:108EE00049BECB88041D002BF6D14B89002BF3D053
:108EF0000A3120460A2202F025FEEDE7CB88002B3E
:108F0000E9D14A89002AE6D002EB420204E04A890C
:108F1000002AE0D002EB82025200041D023292B21B
:108F20000A31204602F00EFED6E700BFA0DF7047F0
:108F300010B5044600F5F87002F0A0FD2046F822B6
:108F4000002117F0CFFEF822A018002117F0CAFE6A
:108F5000204610BD2DE9F04782B00546BDF82C60D3
:108F6000BDF830402048ADF80460BDF828A0ADF849
:108F70000640904699460F4601F026FE05F5F87525
:108F8000064603E0FFF740FE0FF034FA284602F0F1
:108F9000D7FD04463046002CF4D10121284602F0CA
:108FA00077FD52464946284602F08EFD08F104013D
:108FB000384601AAFFF7BAFF30B1284602F072FD29
:108FC000204602B0BDE8F0874FF4FA71284602F05F
:108FD00081FD20EAE074284602F064FDA4B2204638
:108FE00002B0BDE8F08700BFB46900202DE9F04F62
:108FF0008F880D8885B0884604463946864801F03A
:10900000E3FDA5F11003012B814640F2908094F816
:1090100054203AB3002633461633502D54F823A07B
:1090200069D0512D1AD198F80630B8F808B0022B43
:1090300053D0BBF1000F11D051466846FFF7DEFB5D
:10904000BDF800305B4559D0514602A8FFF7D6FB6A
:10905000BDF80C305B4551D094F854200136F3B282
:109060009342D9D394F84C31002B00F0D18004F511
:10907000A679002604E094F84C310136B34220DD95
:1090800059F8040FFFF764FCB842F4D1382D03D02F
:10909000392D01D0362DEED1B8F80AA0BAF1000F63
:1090A000E9D0D9F800B05846FFF756FC5045E2D158
:1090B00058464146FFF752FC94F84C310136B34212
:1090C000DEDC112D55D0352D04D1B8F80A30002B37
:1090D00040F08F8005B0BDE8F08F98F80E30062B79
:1090E000A7D1DAF800305046DB6841469847484639
:1090F000FFF780FDB0E7B8F806B09AE7DAF800307D
:109100005046DB68414698474846FFF773FD002804
:10911000A2D0502DA0D1514602A8FFF76FFBBDF899
:109120000C305B4598D14846FFF7A0FD94E72378C3
:10913000002B3FF46CAF0026112D33460CD004EB0E
:1091400083033946586803685B689847013622787C
:10915000F3B29A42F3D85AE704EB830339465868CE
:1091600003681B68984701362278F3B29A42F3D815
:109170004DE7D3B10026334605E094F84C21013683
:10918000F3B29A4211D904EB8305D5F85001FFF7E9
:10919000DFFBB842F1D1D5F85001FFF7D5FB01361E
:1091A00094F84C21F3B29A42EDD894F8F820002AB2
:1091B00090D000252B4604EB8303D3F8FC00838872
:1091C000BB420AD00135EBB2934283D204EB830356
:1091D000D3F8FC008388BB42F4D103681B6898472E
:1091E000013594F8F820EBB29342E4D305B0BDE822
:1091F000F08F04F5F874B8F80C20204608F110013F
:1092000002F0A0FC204605B0BDE8F04F02F0B2BC71
:10921000112D7FF458AFC8E7B469002090F85420AE
:10922000272A0CD810B4034602F11604013280F844
:10923000542043F8241001205DF8044B70470020AF
:10924000704700BF0378132B06D800EB830201336D
:1092500003700120516070470020704778DF70472D
:109260007ADF7047054A034692E80300002283E84C
:109270000300C3E902221846704700BF6C43040094
:1092800008B5FFF7EDFF08B1002008BDFFF7E6FFC6
:10929000B0FA80F0400908BDF8B500250D4F2E4604
:1092A00001E0142D14D0A9B2384601F08DFC01352F
:1092B00004460028F5D0FFF799FC0028F1D020469D
:1092C000FFF79EFC012804BF0136F6B2142DEAD147
:1092D0003046F8BDB469002081607047C1607047B6
:1092E000704700BF8ADF704730B40D4CC4621F2541
:1092F000002250248584A025C0E91122C0E90F2254
:10930000A0F84650A0F84840006230BC8262028655
:1093100080F838204263C264A0F85020704700BF34
:10932000000180002DE9F04F10468DB016460C4626
:1093300000F018FFC5B2102D4FD0B66807220623E3
:10934000A16994F81C9001918DF80D208DF80C30D6
:10935000ED080DF10C080DF10E0A0027B9F1010F0F
:109360000A97CDE90477CDE90677CDE90877CDF8FE
:109370002B700ED998F8000001994B464A7882422A
:109380000FD00A78D4432344013213F0FF03114471
:10939000F4D108F10108C245E0D100200DB0BDE8CC
:1093A000F08F11F8024B013CE4B2224604A817F0FA
:1093B00071FC0DF1100B1CB9EBE714F0FF04E8D0C1
:1093C00058462A46314617F057FC641BAB44002828
:1093D000F3D101200DB0BDE8F08F04360322022343
:1093E000AEE700BF2DE9F0430B888E88103B87B0B5
:1093F0000D4604460D2B2CD8DFE803F077072B2B06
:109400002B2B2B2B2B2B2B842B2E836AF340DB0750
:109410001FD55648FEF708FED8B9A36A94F82C2049
:10942000012505FA06F623EA0606A6628AB994F82B
:109430002D3073B11F232462A38404F1200104F1B1
:109440004400FFF74FFF20B9494801F0D5FB84F8ED
:109450002C5007B0BDE8F08390F92E2091F91B3015
:109460009A423ADC90F8383001F108080BB3DFF883
:109470000491002602E0D6B2B34218D9636BCDF84E
:10948000089003EB061302AA59680391D3E902730B
:109490004146204605930497FFF744FF074602A87C
:1094A00000F032FE94F83830721C002FE3D09E4258
:1094B00013D094F82F30002B49D095F82430012B8D
:1094C0000BD9296A4A78FF2A30D00A78D04303445E
:1094D000013213F0FF031144F4D104F12001002004
:1094E000FFF700FF07B0BDE8F083CB7B022BB0D1C4
:1094F000836A012202FA06F633430022836280F86F
:109500002C20A6E70B7A012BA3D1002580F82C5044
:10951000174801F085FB226C002A9AD0009502AB17
:1095200029462846029512F087F892E711F8025B67
:109530006A1ED2B2022A28BF022202A817F0AAFB92
:10954000012DCAD0228EBDF808309A42C5D1E26BF7
:10955000002A3FF47EAF01230093404602AB242152
:10956000CDF8088012F068F873E700BFC4690020E6
:10957000B46900209443040046DF70477FDF7047E2
:1095800080DF704781DF704785DF704786DF704777
:1095900038B51C460D4603461146284622469847D4
:1095A00034B1014600222846BDE83840FFF7E8BF45
:1095B00038BD00BF10B50C4682B003466946204650
:1095C00098476A4620460121FFF7DAFF02B010BD36
:1095D00010B50446083002F049FE074B2360032211
:1095E00000232271C4F81034C4F81434C4F81834B9
:1095F000C4F81C34204610BD3507100330B50446AE
:10960000ADF55F7D00F108058F4802F0C3FD08212C
:10961000284602F02FFE684602F036FE6846082112
:1096200002F036FE6946284602F0D4FD04F54F717B
:109630004122684602F03AFE684602F033FE94F892
:109640005C0394F85B2394F83D1394F83E3384F85C
:109650003D0384F83E2394F85A0394F8592394F870
:109660003F5384F85C1384F85B3394F8401394F808
:10967000413384F83F0384F8402394F8580394F866
:10968000572384F85A5384F8591394F8425394F8A2
:10969000431384F8410384F8583394F8560394F83C
:1096A000443384F8422394F8552384F8575384F8BC
:1096B000430384F8442384F8553384F8561394F80C
:1096C000451394F8540394F8532394F8463384F8DC
:1096D000450384F8462394F8520394F8512394F8F0
:1096E000475384F8541384F8533394F8481394F888
:1096F000493384F8470384F8482394F8500394F8D6
:109700004F2384F8525384F8511394F84A5394F831
:109710004B1384F8490384F8503394F84E0394F8BB
:109720004C3384F84A2394F84D2384F84F5384F83B
:109730004B0384F84C2384F84D3384F84E1394F88B
:109740005D1394F87C0394F87B2394F85E3384F8DB
:109750005D0384F85E2394F87A0394F8792394F8EF
:109760005F5384F87C1384F87B3394F8601394F887
:10977000613384F85F0384F8602394F8780394F8E5
:10978000772384F87A5384F8791394F8625394F821
:10979000631384F8610384F8783394F8760394F8BB
:1097A000643384F8622394F8752384F8775384F83B
:1097B000630384F8642384F8753384F8761394F88B
:1097C000651394F8740394F8732394F8663384F85B
:1097D000650384F8662394F8720394F8712394F86F
:1097E000675384F8741384F8733394F8681394F807
:1097F000693384F8670384F8682394F8700394F855
:109800006F2384F8725384F8711394F86A5394F8B0
:109810006B1384F8690384F8703394F86E0394F83A
:109820006C3384F86A2394F86D2384F86B03012069
:1098300084F86F5384F86E1384F86C2384F86D33C6
:109840000DF55F7D30BD00BF407100200B7803F047
:10985000FE03042B01D00020704770B515468CB074
:109860000C462022002104A817F03CFA28686968F9
:10987000AA68EB686D460FC59DF800109DF80F2093
:109880009DF801609DF80E509DF802008DF80F10B4
:1098900023469DF80D108DF800209DF803208DF8CB
:1098A0000E608DF801509DF80C609DF804508DF805
:1098B0000D008DF802109DF80B009DF805108DF835
:1098C0000C209DF80A208DF803608DF80B508DF860
:1098D00004008DF805208DF80A109DF8061033F865
:1098E000042FADF810209B789DF809209DF81D00ED
:1098F0009DF810609DF81F508DF809108DF8062016
:109900009DF811109DF81E208DF81D309DF8073030
:109910008DF812008DF81F609DF808009DF8136007
:109920008DF810508DF81E109DF81C509DF81410E5
:109930008DF811208DF808309DF81B209DF81A3005
:109940008DF807008DF81C608DF813509DF8156098
:109950008DF81B108DF8142068468DF815309DF891
:1099600019109DF817209DF818309DF816508DF8A5
:1099700018208DF816108DF817308DF81A608DF8B4
:109980001950FFF7F9FD62789DF82F309DF82E00F1
:109990009DF82D108DF821009A428DF8221004F1C7
:1099A000010404D0012080F001000CB070BD627889
:1099B000C3B29A4204F10104F4D16278CBB29A4264
:1099C000F0D10020EFE700BF08B5137CDB0758BFDC
:1099D0001C32084602F11201FFF7D6FDB0FA80F002
:1099E000400908BDF0B58F880E46ADF56B7D044685
:1099F0003946464801F0E8F83388133B0546072B03
:109A00002FD8DFE813F03E005F006D002E00280322
:109A1000870008003100337AB3B9737B9B070ED4FB
:109A2000294602A8FFF7F2F80299BDF80C209DF82C
:109A30000E3084F80C34C4F80614A4F80A2428461E
:109A400004F2BE31FFF718F9D4F818244AB1307A7D
:109A50000D9002230021009308460CAB0C9711F0E7
:109A6000EBFD0DF56B7DF0BDD4F81C24002AF8D079
:109A700001230021009308460CAB0C9711F0DCFD8C
:109A8000EFE704F2BE3304F2DA320C9304F2F63359
:109A900000251092119304F23D3204F27E330F92AE
:109AA0001393CDE90D551295FFF7AAF801280CBFC5
:109AB00022462A460CAB29463846FFF75FFD0DF5D6
:109AC0006B7DF0BD0CA9FFF7EDF80346002800F010
:109AD000D2820CA9384600231AAAFFF757FDC0E727
:109AE000D4F810140029BCD0B37B094A03F0010359
:109AF0000F930423CDE90C1706F10800009306210B
:109B00000CAB0E9011F098FDABE700BFB4690020DC
:109B10009195020094F87E3394F89D2394F87FC3C6
:109B200094F89C6394F8805394F89B0384F89D33D5
:109B3000042194F89A3384F87D1384F87E2394F8F2
:109B4000811394F8822384F89CC384F87F6394F88B
:109B500099C394F8836384F89B5384F8800394F842
:109B6000985394F8840384F89A1384F8813394F812
:109B7000971394F8853384F8992394F8962384F8FE
:109B800082C384F8986384F8835384F8970384F835
:109B9000841384F8852384F8963394F8862394F804
:109BA000953394F887C394F8946394F8885394F8A1
:109BB000930394F8891384F8952384F8863394F8F2
:109BC000922394F88A3384F894C384F8876394F8D2
:109BD00091C394F88B6384F8935384F8880394F8C2
:109BE000905394F88C0384F8921384F8892394F8A2
:109BF0008F1394F88D2384F8913394F88E3384F87E
:109C00008AC384F8906384F88B5384F88F0384F8B4
:109C10008C1384F88D3384F88E2394F89E2394F863
:109C2000BD3394F89FC394F8BC6394F8A05394F8A0
:109C3000BB0394F8A11384F8BD2384F89E3394F8F1
:109C4000BA2394F8A23384F8BCC384F89F6394F8D1
:109C5000B9C394F8A36384F8BB5384F8A00394F8C1
:109C6000B85394F8A40384F8BA1384F8A12394F8A1
:109C7000B71394F8A52384F8B93394F8B63384F86D
:109C8000A2C384F8B86384F8A35384F8A41384F8B7
:109C9000B62384F8A53384F8B70394F8A60394F8A0
:109CA000B51394F8A72394F8B43394F8A86394F800
:109CB000B35384F8B50384F8A61394F8A90394F871
:109CC000B21384F8B42384F8A73394F8AA2394F841
:109CD000B13384F8B36384F8A85394F8AB6394F871
:109CE000B05384F8B20384F8A91394F8AC0394F841
:109CF000AF1384F8B12384F8AA3394F8AD2394F811
:109D0000AE3384F8AD3384F8AE2384F8B06384F8BE
:109D1000AB5384F8AF0384F8AC130CA802F0B4FA88
:109D20000CA8082102F0B4FA04F27D310CA84122FB
:109D300002F0CEFA0CA904AA202304F1080002F0D4
:109D400077FA0CA802F0AEFA9DF810109DF82F00DB
:109D50009DF811309DF82E209DF812609DF82D5031
:109D60008DF810008DF82F109DF813009DF82C1021
:109D70008DF811208DF82E309DF814209DF82B3091
:109D80008DF812508DF82D609DF815509DF82A60C1
:109D90008DF813108DF82C009DF816109DF82900F1
:109DA0008DF814308DF82B209DF817309DF8282061
:109DB0008DF815608DF82A508DF816008DF8172053
:109DC0008DF828308DF829109DF818109DF827007F
:109DD0009DF819309DF826209DF81A609DF82550B1
:109DE0008DF818008DF827109DF81B009DF82410A1
:109DF0008DF819208DF826309DF81C209DF8233011
:109E00008DF81A508DF825609DF81D509DF8226040
:109E10008DF81B108DF824009DF81E109DF8210070
:109E20008DF81C308DF823209DF81F309DF82020E0
:109E30008DF81D608DF822508DF821108DF81F20AF
:109E40008DF820308DF81E0094F87E0394F89D1351
:109E500094F87F2394F89C3394F8806394F89B5390
:109E600084F89D0384F87E1394F8810394F89A1380
:109E700084F89C2384F87F3394F8822394F89933F0
:109E800084F89B6384F8805394F8836394F8985320
:109E900084F89A0384F8811394F8840394F8971350
:109EA00084F8992384F8823394F8852394F89633C0
:109EB00084F8986384F8835384F8841384F8962391
:109EC00084F8853384F8970394F8860394F89513FF
:109ED00094F8872394F8943394F8886394F8935310
:109EE00084F8950384F8861394F8890394F8921300
:109EF00084F8942384F8873394F88A2394F8913370
:109F000084F8936384F8885394F88B6394F890539F
:109F100084F8920384F8891394F88C0394F88F13CF
:109F200084F8912384F88A3394F88D2394F88E333F
:109F300084F8906384F88B5384F88C1384F88E2310
:109F400084F88D3384F88F0394F89E0394F8BD133E
:109F500094F89F2394F8BC3394F8A06394F8BB530F
:109F600084F8BD0384F89E1394F8A10394F8BA13FF
:109F700084F8BC2384F89F3394F8A22394F8B9336F
:109F800084F8BB6384F8A05394F8A36394F8B8539F
:109F900084F8BA0384F8A11394F8A40394F8B713CF
:109FA00084F8B92384F8A23394F8A52394F8B6333F
:109FB00084F8B86384F8B70384F8A41384F8B6234C
:109FC00084F8A53384F8A35394F8A65394F8A723F0
:109FD00094F8B43394F8B50394F8A81394F8B363E1
:109FE00084F8B55384F8B42394F8A95394F8AA23B9
:109FF00084F8A73394F8B13394F8B0C384F8A60377
:10A0000084F8B31394F8B20394F8AB1384F8A863FC
:10A0100084F8B25394F8AC6394F8AF5384F8B12346
:10A0200084F8AA3394F8AD2394F8AE3384F8A903E6
:10A0300084F8B013384604A984F8ABC384F8AF633E
:10A0400084F8AC5384F8AE2384F8AD33FFF79AFA62
:10A050000DF56B7DF0BDD4F81424002A3FF401AD5A
:10A060000223002100930C920CAB064A0D97084680
:10A0700011F0E2FAF5E438461A461946FFF786FA77
:10A08000EFE400BFB5950200A8DF7047704700BF3E
:10A0900030B5044683B0083000F074F804F10C01C8
:10A0A0000DF106020120FFF7EFFF054628B9044B2A
:10A0B00004481C602146FFF7C5F8284603B030BDB0
:10A0C000B0690020F46D002030B44C68C460D1E960
:10A0D0000241054A054D0260054A8560C0E9044118
:10A0E000426030BC704700BF7C43040094430400CE
:10A0F0000000111183790B70C3791370704700BF92
:10A1000062DF704763DF7047704700BF10B50446D9
:10A1100010F064FD204610BD034A02600022C0E931
:10A1200002228271828070479443040010B4054C6F
:10A130008180002201210460C0E902225DF8044B05
:10A140008171704794430400002210B4044C0460F1
:10A1500081605DF8044B82718280C260704700BFED
:10A16000944304008379012B0AD0826832B9C26813
:10A1700022B9012B8CBF80200020704780207047BF
:10A18000102070472DE9F047857982B0002D47D126
:10A19000C7680646002F47D010200EF047F98246C8
:10A1A000384617F08CFC441E30B3DFF88490A84684
:10A1B00004E00134023C1FD4102D1DD017F804C058
:10A1C000BCF12D0F07EB0402F3D099F80030ADF885
:10A1D00005808DF8043012F8013C8DF8043010220F
:10A1E000002101A88DF805C017F0A8FD6B1C023CEA
:10A1F0000AF80500DDB2DFD5C6F808A0BAF1000FF5
:10A200000ED0B11D5046FFF77BFFB168321D102004
:10A21000FFF778FFB0FA80F0400902B0BDE8F087A0
:10A22000012002B0BDE8F087D0F808A0E6E700BF43
:10A23000884304004DDF70474EDF70474FDF7047A3
:10A2400050DF70474BDF704710DF70477CDF70478F
:10A250007DDF704760DF704769DF704761DF7047FF
:10A2600066DF704767DF7047704700BF0C2011F052
:10A270006DBD00BF30B5224C224D83B0D4F8280705
:10A280004FF0FF310EF0F0FD0028F7D0C5B101A866
:10A29000FFF7D8FF0528F1D00028F8D1019B032B48
:10A2A0001BD8012BF3D918460DF0D8FBEFE70A2B8A
:10A2B00004D0092B21D00B2B02D1012006F08CFAFF
:10A2C00001A8FFF7BFFF0528D8D00028F8D1019BCF
:10A2D000A3F10902022AF3D8E9E7A3F10902022A4D
:10A2E000D5D80A2B04D0092B05D00B2BCFD10120B8
:10A2F00006F072FACBE70220FAE70220DEE700BFA1
:10A30000B46900205D7A03002DE9F04F2DED028B3A
:10A310004FF4FA7089B00EF089F8B24E00F10803DC
:10A3200008EE103A054606F5F06706F5C86AD6F855
:10A3300024074FF0FF310EF097FD0028F7D04FF4BF
:10A34000FA730DF116012846ADF81630FFF786FFB7
:10A3500010B10528F3D1EAE7B5F80490B9F1130F6D
:10A3600000F2398106EB8903D3F834473CB1294622
:10A370002046FEF7B9FC9C482946FFF733FB2B88A3
:10A38000013B1B2B5AD8DFE813F016015900590086
:10A3900059005900590059005900590059005900F5
:10A3A0005900590059005900B4001C0059005900C7
:10A3B00059005900590059005900590059005900D5
:10A3C000A200DFF838824FF0000B58F8040F30B1CC
:10A3D000FEF70CFC18B10BF1010B5FFA8BFBB845D3
:10A3E000F3D1BBF1000F06D196F830371BB15946B7
:10A3F0000C2011F08DFC2046FEF702FC012800F035
:10A40000EC80F26962B10223002195F808C0009344
:10A41000084606ABCDF81890CDF81CC011F00CF929
:10A4200009F5E67806EB8803586810B103685B68A5
:10A43000984706EB88080023C8F8043029465046A0
:10A44000FDF76CFD69482946FEF7CCFFB6F83237B8
:10A450004B452B8800F0B480102B1ED02CB3204627
:10A46000FEF7CEFB012803D15E482946FEF738FFF0
:10A470002046FEF7C5FB02281BD05D48FEF71EFDF7
:10A4800000BB5C482946FEF7B1FDD6F88837002BA3
:10A490003FF455AF2846984751E7EB7B012BDDD1C0
:10A4A000AB88A6F83237002CD9D14E482946FEF7A2
:10A4B00017FF51482946FDF7D7FD4D48FEF7FEFC32
:10A4C0000028DED04A482946FEF7FAFCD9E7D6F83C
:10A4D0008427002AB2D00223002195F908C00093F6
:10A4E000084606ABCDF81890CDF81CC011F0A4F8C2
:10A4F000A4E74FF00008D6F82C07CDF800804346BB
:10A50000424603213D4C10F029F854F8040F30B1B5
:10A51000FEF76CFB18B108F101085FFA88F8BC423D
:10A52000F3D196F830376BB1B8F1000118BF0121B3
:10A530000C2011F0EDFB96F830371BB101210C20F7
:10A5400011F0E6FB09F5E67806EB8804606820B1B7
:10A5500003685B68984700236360EB7B012B0BBFAC
:10A5600096F8123796F8183796F8134796F8194761
:10A570000393342010F030FB06EB8808039B009413
:10A5800018EE102A04464946FEF7FCFA2046C8F8A1
:10A590000440FEF735FB012832D0B269002A3FF4AF
:10A5A0004DAF012300210093084606ABCDF818906B
:10A5B00011F042F842E700214846FFF751FE3DE71F
:10A5C000102B3FF46AAF112B7FF448AF4FF6FF73A7
:10A5D000A6F8323742E70446D1E6F268002A7FF453
:10A5E00012AF1DE7B4690020D4690020507000202C
:10A5F000A4700020F46D0020C4690020E4700020E5
:10A60000B268002A3FF41AAF0021009006AB08465A
:10A61000CDF8189011F010F810E700BF38B50446D7
:10A62000FEF720FE04F11000FDF7EAFC04F1200023
:10A63000FEF7CEFF04F58860FEF77AFC04F5C860EB
:10A64000FDF788FB04F27C60FDF710FB04F29C60D0
:10A65000FEF74AFE04F5DE60FEF716FC4FF4805369
:10A660000025C4F8083716481649174AC4F80C07DD
:10A6700040F20113C4F81017C4F81427A4F81837CF
:10A68000A4F81A5704F234702946502216F02AFB17
:10A6900001224FF6FF73A4F81C5784F81E57C4F824
:10A6A0002457C4F82857C4F82C57C4F88857C4F85E
:10A6B000845784F83027A4F83237204638BD00BFCD
:10A6C000010A1700030001011700030004290BD839
:10A6D000DFE801F00B130B1B0300104BC0F80E3723
:10A6E00040F20313A0F8123770470D4BC0F80E3735
:10A6F00040F20113A0F8123770470A4BC0F80E372A
:10A7000040F20113A0F812377047074BC0F80E371C
:10A710004FF48173A0F81237704700BFF700640050
:10A72000170003001700020080000600F0B5BF4EBE
:10A7300080F81C178DB080F81D27044610F0CAFA67
:10A7400010F0D0FA10F08EFA3369B949039303A8D8
:10A75000FFF77AFD18B1002528460DB0F0BD0120A5
:10A76000FFF76AFD0120FFF765FD0120FFF766FD99
:10A7700009A8FFF765FD099B9B0705D5AD4BD3F8ED
:10A780000435002B00F0FE800023AB4A94F80D57EF
:10A79000049209A90120CDE909330B938DF82450C7
:10A7A000FFF75AFD0028D6D194F81D370B90CDE95C
:10A7B0000900181E18BF012094F81C578DF82700B7
:10A7C000049A8DF8263009A940208DF82550FFF70E
:10A7D00043FD0028BFD194F80C170990034661F39C
:10A7E0000003CDE90A00049A8DF8243009A9A020BD
:10A7F000FFF732FD0028AED1D4F808370A900B904D
:10A80000049A099309A9A120FFF726FD0028A2D1E7
:10A8100094F81C37002B40F0B98094F81D37002BBA
:10A8200048D00023B4F81477049A0993022509A9A3
:10A830002320CDE90A338DF82450ADF82670FFF7B8
:10A840000BFD002887D1CDE9090094F81D77B4F8F5
:10A8500016370B90049A8DF8245009A920208DF802
:10A860002670ADF82830FFF7F7FC00287FF473AFAF
:10A870000990CDE90A0094F81837049A8DF824500D
:10A8800009A922208DF82630FFF7E6FC00287FF486
:10A8900062AFCDE9090094F819370B90049A8DF84E
:10A8A000245009A921208DF82630FFF7D5FC002877
:10A8B0007FF451AF04A8FFF7CDFC00287FF44BAF25
:10A8C000CDE9070040F0010307A902208DF81C30F4
:10A8D000FFF7C8FC00287FF43EAF2046FEF7D0FC0F
:10A8E000054600283FF437AF04F12000FEF786FE4E
:10A8F000337D52498DF808300D2202A8FFF7A6FCDF
:10A9000000287FF428AF94F81D37002B40F0888092
:10A910000322002101200DF00BFEC4F824070028BB
:10A920003FF419AF05AB0326CDE900634449454820
:10A9300000234FF4A0620EF0B1FD32460021012049
:10A940000DF0F6FDC4F8280700283FF404AF06AB6D
:10A95000CDE900633C493D480023C8220EF09EFD2E
:10A960003B4B4FF480021A603A4B00930023184689
:10A9700001224FF480710FF09BFDC4F82C0701F009
:10A9800005F9E9E6022005F027FFFDE60990CDE98B
:10A990000A00B4F80E37049AADF82630012509A94B
:10A9A00023208DF82450FFF757FC00287FF4D3AE06
:10A9B000CDE9090094F81C77B4F810370B90049A8D
:10A9C0008DF8245009A920208DF82670ADF8283084
:10A9D000FFF742FC00287FF4BEAE0990CDE90A00E3
:10A9E00094F81237049A8DF8245009A922208DF882
:10A9F0002630FFF731FC00287FF4ADAECDE9090029
:10AA000094F813370B90049A8DF8245009A921204B
:10AA10008DF82630FFF720FC00283FF4FEAE9AE6C2
:10AA200004F11000FDF7FAFA72E700BFF0430400EA
:10AA300069A202000070024000600020D8430400B8
:10AA4000E843040009A30200EC43040075A20200DD
:10AA500000E100E06DA2020000B5084B85B01B7D4F
:10AA6000019108468DF80C3017F029F8019982B24F
:10AA700003A8FFF7EBFB05B05DF804FBF04304000F
:10AA800000B583B008460DF10601ADF80620FFF7CA
:10AA9000DFFB20B99DF8060003B05DF804FB002041
:10AAA00003B05DF804FB00BF70B4234B0E460546AF
:10AAB0000FCB85B06C4607C49DF900202380B242BD
:10AAC00034D09DF90130B34230D09DF90230B34209
:10AAD0002CD09DF90330B34228D09DF90430B34205
:10AAE00024D09DF90530B34220D0FEB19DF9073046
:10AAF000B3421BD09DF90830B34217D09DF90930FD
:10AB0000B34213D09DF90A30B3420FD09DF90B30F8
:10AB1000B3420BD09DF90C30B34207D09DF90D30F4
:10AB2000B34203D0002005B070BC7047012085F807
:10AB30001E6705B070BC70470844040090F91E07FA
:10AB4000704700BF80F83017704700BF70B50446EB
:10AB500082B0D0F82C070D460FF02CFD4FF47A721E
:10AB600006460023A90DA80215F066FE0023024642
:10AB70000421D4F82C0700930FF0F0FC0EB102B0C2
:10AB800070BD0096D4F82C073346324603210FF0EF
:10AB9000E5FC02B070BD00BF132906D800EB8101AF
:10ABA000D1F8340708B1FEF721B80020704700BF84
:10ABB000B0F83207704700BF01290CBFB0F80E078C
:10ABC000B0F81407704700BF13299ABF00EB81014A
:10ABD000D1F834070020704710B5064C0021D4F896
:10ABE00028070DF0B5FFD4F824070021BDE8104078
:10ABF0000DF0AEBFB469002090F8303703B970474C
:10AC000010B582B0D0F82C470EF038FE0023024673
:10AC10000093204601210FF0A1FC02B010BD00BF3F
:10AC2000F0B583B0002405462346D0F82C070094E5
:10AC3000224603210FF092FC05F5E66605F5F06764
:10AC400056F8040F20B1FDF7D1FF08B10134E4B28A
:10AC5000BE42F5D195F8303743B1211E18BF01210E
:10AC60000C2003B0BDE8F04011F052B803B0F0BDC5
:10AC70000148FFF7D3BC00BFB46900200020704733
:10AC800008B51830FDF7DCFD003818BF012008BDFD
:10AC900030B585B0044641F60F016846FFF746FA25
:10ACA00069462046FFF710FA25466846FFF72CFA5A
:10ACB000084B45F8183B684642F61921FFF736FA6B
:10ACC00069462846FDF718FD6846FFF71DFA20463D
:10ACD00005B030BD2044040030B583B00446FFF712
:10ACE000D7F908B103B030BD0546122104F11800B0
:10ACF0000190FDF747FD01982A461121FDF75AFD05
:10AD000001980121FDF744FD019803B0BDE83040F2
:10AD1000FDF70EBA3CDF70473DDF704711DF70472B
:10AD200013DF7047B0DF7047B2DF70472DE9F041A5
:10AD30009EB0074604A8158814460E46FDF75EFD32
:10AD4000BDF81030AB4202D01EB0BDE8F081A3794F
:10AD5000043B022BF8D939465248FFF735FF4FF034
:10AD600000080223394605463046CDE90688CDE97C
:10AD700008888DF81830FDF7A3FD06A900286AD0D1
:10AD80003846ADF81C80FFF7CDFF247B012CDBD1CA
:10AD9000454E41463E22304615F0A4FF23460DF1B4
:10ADA0000E02424938460824ADF80E40FFF7BCFFBA
:10ADB00068462946FDF72AFF00983060BDF8043048
:10ADC0009DF80620B271B3802846FDF713FF0028D6
:10ADD00049D1354936484FF6FF740B4601311B788F
:10ADE00083EA142383EA131242EA042283EA131348
:10ADF00082EA033282EA431381429CB2EDD12A4BAC
:10AE00002C489C870021FCF7C3FF2846FDF70EFF66
:10AE1000FF210020FFF780FFB1210020FFF77AFF1C
:10AE2000002891D1FFF77AFF00288DD1224B4FF0F7
:10AE3000FF324FF01024C3F88020C3F880216069EE
:10AE4000FFF76EFF00287FF47FAF80F314886069FE
:10AE500001F082F978E740F2FD133846ADF81C3076
:10AE6000FFF760FF70E70AA92846FDF71BFF0028DF
:10AE7000AFD01EAB13E903000B0C3060B180B3718F
:10AE800018AC0FCC0D4FC6F807000AAC7960BA6059
:10AE9000FB600FCC18360FC694E8070086E8070061
:10AEA00097E700BFB4690020807F0020B47F0020B6
:10AEB000BC7F0020F46F002000E100E0877F0020CD
:10AEC00030B585B004460E496846FFF73DF969463E
:10AED0002046FFF7F9F825466846FFF715F9094BB4
:10AEE00045F8183B08496846FFF72EF96946284699
:10AEF000FDF702FC6846FFF707F9204605B030BDB4
:10AF00002C440400744404004C44040030B5B3B035
:10AF10000546FFF7BDF818B10446204633B030BDF2
:10AF20002D491CA8FFF710F91CA906A8FDF7E4FBA2
:10AF30001CA8FFF7E9F806A8FDF720FC06A80421E5
:10AF4000FDF720FC06A81421FDF720FC06A8FDF75C
:10AF5000EFF8044698B905F1180018210190FDF7A3
:10AF600011FC01981721FDF711FC01981B490122E2
:10AF7000FDF72EFC0198FDF7DBF8044628B106A882
:10AF8000FDF7BCF8204633B030BD154902A8FFF7E5
:10AF9000DBF802A91CA8FDF7AFFB02A8FFF7B4F885
:10AFA0001CA8FDF7EBFB02211CA8FDF7EBFB02211F
:10AFB0001CA8FDF7EDFB1CA8FDF7BAF8044618B96C
:10AFC00001211CA8FDF75CFC1CA8FDF797F806A85A
:10AFD000FDF794F8D6E700BF3C4404002DAD020015
:10AFE0005C440400C16180F83D207047016380F833
:10AFF0004220704770B584B0044641F60A016846A5
:10B00000FFF794F869462046FFF75EF86846FFF7B9
:10B010007BF820460E4B40F8183B2422002115F007
:10B0200061FE0C4E0C480D4AE06200232364E3638A
:10B0300084F844300D25052113232046E66184F869
:10B040003D5084F84110226384F8423004B070BD52
:10B05000A4440400D843040080440400884404004D
:10B060002DE9F0479AB00646FFF712F8804600280F
:10B0700046D1336A002B4ED0736A002B56D0C6F5EA
:10B08000275909F1270906F1140406F1380706F1DA
:10B090003C0554F8043F04A873B3FDF7FDFA226899
:10B0A000B36B09EB05019A4289B2684608BF42F6C4
:10B0B0005021FFF73BF8694604A8FDF753FB6846AB
:10B0C000FFF722F804A8FDF759FB022104A8FDF7B9
:10B0D00059FB297804A8FDF75BFB04A8FDF728F8C5
:10B0E000824604A8BAF1000F0ED12A782168FDF734
:10B0F0008BFB04A8FDF702F8BC4205F10105C8D19D
:10B1000040461AB0BDE8F087FCF7F8FFD04640464D
:10B110001AB0BDE8F08710F035FC044616F0CFFCFD
:10B12000736A346286F83E00002BA8D110F0EAFB67
:10B13000044616F0C4FC746286F83F009FE700BF27
:10B14000D0F8D830988980B2704700BF70B582B00F
:10B15000064608461C460192FDF70EFB019905467E
:10B160002246D0F8D80010F027FB844206D9D5F843
:10B17000F0301BB1211A89B230469847D5F8E83033
:10B1800023B1304602B0BDE87040184702B070BD30
:10B1900008B592B2D0F8D80010F05CFB08BD00BF33
:10B1A00000B583B0D0F8D8000DF10702002110F0EF
:10B1B0008DFB20B19DF8070003B05DF804FB4FF054
:10B1C000FF30F9E7D0F8D80010F0E4BAD0F8C0307A
:10B1D000988980B2704700BFD0F8C00010F0DABA8A
:10B1E00010B501680C4A8C69944282B00BD1D0F83A
:10B1F000D80001220DF1070110F02CFB40B19DF8A1
:10B20000070002B010BD01220DF10701A047F5E7CC
:10B210004FF0FF30F5E700BF91B1020000B583B0F9
:10B22000D0F8C0000DF10702002110F04FFB20B153
:10B230009DF8070003B05DF804FB4FF0FF30F9E71D
:10B2400010B550F8181C0D4A8C69944282B00CD08D
:10B25000183801220DF10701A04718B19DF8070029
:10B2600002B010BD4FF0FF30FAE701220DF10701E7
:10B27000D0F8C00010F0EEFAEFE700BF91B1020085
:10B280002DE9F04F50F8183C83B004463F48D3F8FE
:10B2900028800F461646FFF78BFC3D4B9845054628
:10B2A00009D0A4F1180033463A462946C44603B0F3
:10B2B000BDE8F04F604701463448FFF785FC834600
:10B2C000002850D004F1100948462946FDF7F8FA45
:10B2D000002848D094F8CC30002B3CD0D4F8C800DB
:10B2E000C8B31FFA86FA5246394610F065FAD4F808
:10B2F000C8309B89804658461FFA83FBFDF782FCC5
:10B300000338834525DB21482946FFF75DFC50B310
:10B31000FDF778FC033882B2104601920DF086F8F2
:10B32000834600B3019AD4F8C800594610F092FA47
:10B330000346F0B958460DF093F8464509D9AAEBF3
:10B3400008039BB207EB080229464846FDF7E8FAD6
:10B3500058B1B04609E03A4629464846B3B2FDF72F
:10B36000DFFA0028F5D14FF00008404603B0BDE8F1
:10B37000F08F5A4629464846FDF7D2FA0446584609
:10B380000DF06EF8002CD8D1EDE700BFB4690020B5
:10B39000B1B702002DE9F04150F8183C84B00446E2
:10B3A0003B489E6A8DF80F10FFF702FC394B9E4216
:10B3B000054609D0A4F11800294601230DF10F021A
:10B3C000B04704B0BDE8F08101463148FFF7FCFB0F
:10B3D000064650B304F1100738462946FDF770FAC7
:10B3E00018B394F8CC30002B49D0D4F8C80000280A
:10B3F00045D00DF10F01012210F0DEF9D4F8C8306C
:10B400009B89804630469EB2FDF7FCFB033886429E
:10B410000DDA0120D5E7324629463846FDF780FA95
:10B42000044630460DF01CF8F4B90020C9E718486E
:10B430002946FFF7C9FB0028F7D0FDF7E3FBC21E42
:10B4400092B2104601920CF0F1FF06460028ECD0B3
:10B45000019AD4F8C800314610F0FCF903460028E0
:10B46000D9D130460CF0FCFFB8F1000FD1D10DF16D
:10B470000F02294638460123FDF752FAA1E7294673
:10B48000384601230DF10F02FDF74AFA99E700BF94
:10B49000B4690020B1B702002DE9F04105683B4BCB
:10B4A000AD6A82B09D428DF8072065D104463848C8
:10B4B0000E46FFF789FB054600284FD004F1280708
:10B4C00038463146FDF7FCF9002847D094F8E430BF
:10B4D000002B47D0D4F8E000002843D00DF107013D
:10B4E000012210F069F9D4F8E0309B8980462846A3
:10B4F0009DB2FDF787FBC31E9D4244DB24483146C5
:10B50000FFF762FB50B3FDF77DFB033882B21046B4
:10B5100000920CF08BFF054600B3009AD4F8E000CF
:10B52000294610F097F968B928460CF099FFB8F150
:10B53000000F28D10DF10702314638460123FDF7EF
:10B54000EFF90CE003462A4631463846FDF7E8F9A4
:10B55000044628460CF084FF002CE8D1002002B0FD
:10B56000BDE8F0813146384601230DF10702FDF7B1
:10B57000D7F902B0BDE8F08101230DF10702A84719
:10B5800002B0BDE8F0810120E9E700BFB1B70200D9
:10B59000B46900202DE9F04F036883B004464148A8
:10B5A0009E6A88461746FFF703FB3F4B9E420546BF
:10B5B00061D101463B48FFF707FB0646002855D0FE
:10B5C00004F1280948462946FDF77AF900284DD0AC
:10B5D00094F8E430002B41D0D4F8E00000283DD0AE
:10B5E0001FFA87FA5246414610F0E6F8D4F8E020F8
:10B5F00003463046B2F80CB01E46FDF703FB1FFAB7
:10B600008BFB0338834524DB26482946FFF7DCFA09
:10B6100060B3FDF7F7FA033882B2104601920CF0DE
:10B6200005FF834610B3019AD4F8E000594610F0A4
:10B6300011F948BB58460CF013FFB74209D9AAEBE1
:10B6400006039BB208EB060229464846FDF768F957
:10B6500068B13E46304603B0BDE8F08F4246294609
:10B660004846BBB2FDF75CF90028F2D1002630460F
:10B6700003B0BDE8F08F01463B4642462046B44643
:10B6800003B0BDE8F04F604703465A462946484696
:10B69000FDF746F9044658460CF0E2FE002CCCD1EA
:10B6A000E4E700BFB4690020B1B702002DE9F04122
:10B6B000036882B004463C489E6A8DF80710FFF785
:10B6C00077FA3A4B9E420546014663D13648FFF76A
:10B6D0007BFA064600284FD004F128073846294651
:10B6E000FDF7EEF8002847D094F8E430002B47D05F
:10B6F000D4F8E000002843D00DF10701012210F03A
:10B700005BF8D4F8E0309B89804630469EB2FDF766
:10B7100079FAC31E9E4245DB23482946FFF754FAB7
:10B7200050B3FDF76FFA033882B2104600920CF066
:10B730007DFE064600B3009AD4F8E000314610F0D2
:10B7400089F868B930460CF08BFEB8F1000F29D1AA
:10B750000DF10702294638460123FDF7E1F80CE018
:10B760000346324629463846FDF7DAF804463046A5
:10B770000CF076FE002CE8D1002002B0BDE8F0818C
:10B780002946384601230DF10702FDF7C9F802B03A
:10B79000BDE8F081204601230DF10702B04702B059
:10B7A000BDE8F0810120E8E7B4690020B1B70200EC
:10B7B0002DE9F04F044683B0384890461F460E46A8
:10B7C000FFF702FA002856D004F128090546314651
:10B7D0004846FDF775F800284DD094F8E430002B6A
:10B7E00041D0D4F8E00000283DD01FFA87FA524635
:10B7F00041460FF0E1FFD4F8E02003462846B2F8B6
:10B800000CB01D46FDF7FEF91FFA8BFB033883458C
:10B8100024DB22483146FFF7D7F960B3FDF7F2F990
:10B82000033882B2104601920CF000FE834610B33A
:10B83000019AD4F8E000594610F00CF800BB5846C5
:10B840000CF00EFEBD4209D2AAEB05039BB208EB39
:10B85000050231464846FDF763F868B13D46284683
:10B8600003B0BDE8F08F424631464846BBB2FDF713
:10B8700057F80028F2D10025284603B0BDE8F08F24
:10B8800003465A4631464846FDF74AF804465846AC
:10B890000CF0E6FD002CD5D1EDE700BFB469002027
:10B8A00070B584B004460E4668461E49FEF74CFC4F
:10B8B00069462046FEF708FC6846FEF725FC1A4B51
:10B8C0001A4903F10802002548334FF47A70C4E99D
:10B8D0000635226020626846FEF736FC694604F1B0
:10B8E0002800FCF709FF6846FEF70EFC1049684681
:10B8F000FEF72AFC694604F18000FCF7FDFE68466D
:10B90000FEF702FC2046C4E93A55C4F8D850A4F822
:10B91000DC60C4F8F050C4F8E05084F8E45004B09F
:10B9200070BD00BFD8440400E8440400C8440400CB
:10B93000B844040010B50D4B0446D0F8E000236075
:10B940004033A36110B103685B68984704F180003D
:10B95000FCF7D4FB04F12800FCF7D0FB2046044B95
:10B9600040F8083BFEF7D0FB204610BDF044040031
:10B970007C43040010B50F4B0446D0F8E000236070
:10B980004033A36110B103685B68984704F18000FD
:10B99000FCF7B4FB04F12800FCF7B0FB2046064B93
:10B9A00040F8083BFEF7B0FB20460FF017F92046A1
:10B9B00010BD00BFF04404007C43040070B5044691
:10B9C00082B018200FF008F90022054601210FF07F
:10B9D000C1FE2846B4F8DC10C4F8D8500FF0CCFEF5
:10B9E0002046FEF755FB054610B1284602B070BD53
:10B9F00001211E48FFF7E0F804F128060346102154
:10BA0000304601961E46FCF7BDFE2A4601981121DC
:10BA1000FCF7D0FE01983146FCF7B8FE01981449B6
:10BA2000FCF7EAFE0198FCF783FB05460028DCD111
:10BA300004F180000C210190FCF7A4FE01980D494F
:10BA40000122FCF7BDFE112201982946FCF7B2FE47
:10BA500001983146FCF79AFE01980749FCF7CCFEA5
:10BA6000019802B0BDE87040FCF762BBB4690020E9
:10BA7000B04404004DB10200B4440400002201218E
:10BA80004270C0E901220170C2818281704700BF0B
:10BA900010B50446017001B110BD0A200CF08AFDFA
:10BAA000606010BD037810B5044643B10023012245
:10BAB0006370C4E90133E381A381227010BD406843
:10BAC0000DF04EFBF2E700BF002381608281C3814D
:10BAD000704700BF037870B504460D46B3B9466899
:10BAE000012363704FF47A720023A802A90D14F0A9
:10BAF000A3FE014630460DF0B7F998B92378002629
:10BB00004FF0FF356670A3B9284670BD03220021AF
:10BB100001200CF00DFD064660600028E0D14FF0DA
:10BB2000FF35F1E7E58923780026ADB26670002B7A
:10BB3000EAD060680DF014FB6660284670BD00BF57
:10BB40004078704738B504468089824228BF024653
:10BB5000154619B1A06815F09DF8A089E389A2687F
:10BB600015FA83F3401B9BB22A44A081E381A260B3
:10BB7000284638BD406820B100231A4619460CF00B
:10BB80004BBD7047B1DF7047B2DF704708B50F4853
:10BB90000BF0F2FD0E490D4806F0D2F828B10D4920
:10BBA0000A4806F0CDF850B108BD0949074806F02B
:10BBB000E3F80849054806F0C3F80028F4D1BDE8C9
:10BBC00008400449014806F0D7B800BFEC7F0020C8
:10BBD0004C4504006045040070B586B00E46032352
:10BBE0000021054614460093044A0496084603AB18
:10BBF000039505940FF020FD06B070BDC5BE020090
:10BC000070B586B00323144606460D4600931046D1
:10BC100003AB044A05940721CDE903650FF00CFD41
:10BC200006B070BDF5BF020030B50A4691B0897903
:10BC30005379039111790293D378094D094C0191FD
:10BC400000939378527801280CBF2946214604A816
:10BC500015F0D6FE04A9044806F0E6F811B030BD90
:10BC600074450400A4450400EC7F00202DE9F04356
:10BC7000D1B00B78032B04AF0D460446904668D92B
:10BC80005A08022A5ED14F4A4F49504BDFF848917B
:10BC9000012818BF11460022381D06F09DFA4B49B5
:10BCA00007F1680006F0CEF907F1CC0611E0024674
:10BCB000414607F1680006F0B7FA08F13802294654
:10BCC0004846FDF7C3FD044678BB07F1680006F05F
:10BCD00021FB0022391D304606F04EFB07F1D00053
:10BCE0000DC8D7F8DC10D7F8E4407B67D7F8E83008
:10BCF00097F8E0C0F8663A67B967412207F1EC01AE
:10BD000007F18800C7E9204387F87CC014F0C2FF20
:10BD100007F1680006F02AFB044607F1680044B109
:10BD200006F030F95028D0D1C1E707F1680006F0DD
:10BD3000F1FA381D06F0EEFA204607F59A77BD466F
:10BD4000BDE8F0830024204607F59A77BD46BDE89C
:10BD5000F083E9468CB08979AB786A780391697988
:10BD60000291297901911A4E1A49E878009004ADA0
:10BD7000012C08BF3146284607F1CC0615F040FEDD
:10BD80001249304606F05EF929463046002206F098
:10BD900007FA044650B90024304606F0BBFA2046A4
:10BDA000CD4607F59A77BD46BDE8F083304606F0EC
:10BDB000E9F8021EEFDD92B24146304606F034FA51
:10BDC000EAE700BF604504004C450400EC7F00201A
:10BDD00074450400A4450400D4690020F0B5ADB05A
:10BDE00095799378344E1446527803956579029587
:10BDF00094F804C0CDF804C0304DE478009404AF4A
:10BE00000C4601280CBF3146294607F10C0015F0FD
:10BE1000F7FD2B4B07F10C0107F13C00002206F067
:10BE2000DBF907F13C0006F0A1FA40B9002407F164
:10BE30003C0006F06FFA2046A437BD46F0BD07F17E
:10BE40003C0006F09FF8051E08DD07F13C0006F0F7
:10BE500029FA291807F13C0006F006FA07F13C0020
:10BE600006F090F8051E08DD07F13C0006F01AFA0E
:10BE7000291807F13C0006F0F7F907F13C0006F03D
:10BE800081F80028D2DDC31D23F007036D46ADEB1A
:10BE9000030D82B204A907F13C00C7E9001206F0C5
:10BEA000C3F92046D7E900120323FFF76BFEB0FA6F
:10BEB00080F46409AD46BAE774450400A445040063
:10BEC000EC7F0020F0B5B5B092F84E5092F84A30B1
:10BED000434E144692F84920039594F84D5002952C
:10BEE00094F84C50019594F84B5000950D463D49FF
:10BEF00004AF012818BF314607F12C0015F080FD72
:10BF0000394807F12C0105F01BFF6E4600284AD185
:10BF1000354B07F12C0107F15C00012206F05CF9BA
:10BF200007F15C0006F022FA18B9C437B546BD46E1
:10BF3000F0BD502107F15C0006F052F85022214676
:10BF400007F15C0005F08AFF0023294627487B6142
:10BF5000C7E90333C7E90633C7E90833BB62FEF715
:10BF600033FE07F10C012022FCF76EFF3B7B03B38D
:10BF700007F10C0015F0A3FD013082B2C1B207F148
:10BF80005C007A6006F02CF87A6807F10C0107F182
:10BF90005C0005F063FF07F15C0006F0BBF9C437F5
:10BFA000B546BD46F0BD07F12C010F4805F03CFF3A
:10BFB000AEE794F8491094F84D3094F84E20039170
:10BFC00094F84A10029194F84B10019194F84C1097
:10BFD000009107F10C00064915F012FDC8E700BFFB
:10BFE000A445040074450400EC7F0020B4690020DF
:10BFF000D44504002DE9F043ADB00C4604AF002158
:10C00000032306461546204607F10A027981FFF709
:10C01000BBFD7B89E84623B9A437C546BD46BDE8CC
:10C02000F0830733DB08A8EBC3039D460DF110092D
:10C03000204607F10A0249460323FFF7A5FD0446FF
:10C040000028E9D1A979AB786A78039169790291DE
:10C05000297901913D483E49ED780095012E08BFB0
:10C06000014607F10C0015F0CBFC3A4B07F10C012F
:10C0700007F13C00012206F0AFF807F13C0006F0A2
:10C0800075F90028C8D0214607F13C0006F0ECF80D
:10C0900007F13C0005F076FF041E08DD07F13C00C7
:10C0A00006F000F9211807F13C0006F0DDF807F171
:10C0B0003C0005F067FF041E08DD07F13C0006F0B8
:10C0C000F1F8211807F13C0006F0CEF807F13C002A
:10C0D00005F058FF7C8980B2A04213D0E1B207F18D
:10C0E0003C0005F07DFF2246494607F13C0005F083
:10C0F000B5FE07F13C0006F00DF9A437C546BD4674
:10C10000BDE8F083E31D6D46DB08A5EBC3039D4648
:10C1100004A9224607F13C00796006F085F87968A9
:10C120007A89484614F0A8FD08B9AD46E1E707F161
:10C130003C0006F0D3F87B89DB43191807F13C007B
:10C1400006F092F8AD467C89C8E700BF744504004C
:10C15000A4450400EC7F0020F0B40346186880F387
:10C1600008885868FF2464B2EFF30585002D01D1DB
:10C17000A64600472546064621273FBAF0B40024CC
:10C18000002500260027F0B4F92040B2004700BF88
:10C19000F0BC704738B590F8E8500DB1284638BD6E
:10C1A000012380F8E830044611F08CFB0028F5D11B
:10C1B0002046BDE8384000F0ADB800BF10B5044CD3
:10C1C000204600F0A3F8002384F8E83010BD00BF3B
:10C1D0004071002003680A689A4201D0002070472D
:10C1E00070B5044684B04FF453700D460CF01EF940
:10C1F0000646B0B10C4800F0ABF8234604350021E8
:10C2000053F8042B0095CDE90161084911F0F4F9C8
:10C21000044630460CF024F9B4FA84F0400904B026
:10C2200070BD002004B070BD40710020D5C3030074
:10C23000F0B585B006464FF453700D46174603938C
:10C240000CF0F4F878B1044600903A46281D311DF0
:10C2500003AB11F04FFA054620460CF001F915B971
:10C26000039805B0F0BD002005B0F0BD00220260CB
:10C27000704700BF10B50446084611F0ADFA2060C3
:10C28000003818BF012010BD00220260704700BFB7
:10C2900010B50446084611F09FFA2060003818BF18
:10C2A000012010BD00230360704700BF00B583B0BC
:10C2B0000430019201AB0A46042111F017F918B9B4
:10C2C000019803B05DF804FB002003B05DF804FBA7
:10C2D000F0B5044683B04FF463700E4617460CF079
:10C2E000A5F8054678B1019054F8040B00943A463D
:10C2F0003146012311F036F8044628460CF0B0F818
:10C30000B4FA84F0400903B0F0BD00BF002280F809
:10C31000E420704770B590F8E4400CB1204670BD41
:10C32000012380F8E43005464FF4BF500CF07EF84E
:10C3300006460028F2D03146284610F037FA044667
:10C34000B4FA84F4304664090CF08AF8204670BDD3
:10C35000704700BF0146014800F056BA4C720020F9
:10C3600038B500F097F940B1002405462046013465
:10C3700000F0C8FDE0B28542F9D838BD70B592B082
:10C380001D460C46164601A84222002114F0AAFCC4
:10C39000412D5CD9631C0222DBB28DF806408DF87A
:10C3A0000E408DF8264040F6083540F202248DF804
:10C3B0001E308DF827308DF83130ADF804508DF8EF
:10C3C00007208DF812208DF833208DF83B20ADF832
:10C3D0000840204A069240F2012505232424ADF8A6
:10C3E00010508DF815308DF8164004231A4C8DF836
:10C3F0001F30012540F224628DF81C508DF830303A
:10C400000894ADF82420154D0A9508234FF41164C3
:10C410000A228DF82C30ADF82E4040238DF83420C0
:10C420000F4C8DF83C3001A9304640F2075540F2E0
:10C4300009464222ADF80C60ADF838508DF8433013
:10C44000CDF83F4014F026FC422012B070BD002011
:10C4500012B070BD200105242402020507058003E7
:10C4600007058002007EFF280AD010B500F0F8FC16
:10C47000044608B1204610BD0EF0FEFF204610BD58
:10C4800000207047007EFF280ED000B583B00DF16C
:10C49000070100F02DFD20B19DF8070003B05DF805
:10C4A00004FB4FF0FF30F9E74FF0FF30704700BF5B
:10C4B000007EFF280FD000B583B001220DF10701E7
:10C4C00000F0DAFC20B19DF8070003B05DF804FB32
:10C4D0004FF0FF30F9E74FF0FF307047007EFF2844
:10C4E00001D000F00FBD7047007EFF2801D000F0A2
:10C4F00069BD0020704700BFF8B50646007EFF28E2
:10C500001CD017465AB10D46144600F083FC29464C
:10C51000224680B1307E00F039FD241A01D1384620
:10C52000F8BD05440EF0A8FF307E00F073FC2946EC
:10C5300022460028EED13F1B3846F1E70020F8BD27
:10C5400070B50368184A5B6882B093428DF8071093
:10C5500021D10546007EFF2823D000F05BFC0DF1C1
:10C56000070601243146224688B1287E00F00EFDE0
:10C57000241A02D1012002B070BD06440EF07CFFE7
:10C58000287E00F047FC314622460028EDD1C4F158
:10C59000010002B070BD01220DF10701984702B001
:10C5A00070BD002002B070BDF9C4020070B592B039
:10C5B0001D460C46164601A84222002114F092FBAB
:10C5C000412D5CD9631C0222DBB28DF806408DF848
:10C5D0000E408DF8264040F6083540F202248DF8D2
:10C5E0001E308DF827308DF83130ADF804508DF8BD
:10C5F00007208DF812208DF833208DF83B20ADF800
:10C600000840204A069240F2012505232424ADF873
:10C6100010508DF815308DF8164004231A4C8DF803
:10C620001F30012540F224628DF81C508DF8303007
:10C630000894ADF82420154D0A9508234FF4116491
:10C640000A228DF82C30ADF82E4040238DF834208E
:10C650000F4C8DF83C3001A9304640F2075540F2AE
:10C6600009464222ADF80C60ADF838508DF84330E1
:10C67000CDF83F4014F00EFB422012B070BD0020F8
:10C6800012B070BD200105242402020507058003B5
:10C6900007058002014B1878704700BF48720020E0
:10C6A000037EFF2B02D1074B1A7802B1704706496F
:10C6B00002764161012200F1100104481A7000F075
:10C6C00043B800BF48720020F44504004C720020BB
:10C6D000007EFF280ED000B583B000F09BFB10B1A8
:10C6E00003B05DF804FB01900EF0C6FE019803B0A4
:10C6F0005DF804FB0020704701B900B1704700B538
:10C7000083B0694600F09CFB009BB3F5966F02D0A6
:10C7100003B05DF804FB00F029FBF9E730B4084BE7
:10C72000084AFF2002F108054FF47A7400213032E4
:10C7300018761D609C601A6130BC59605961704761
:10C740002C72002004460400F8B50546B0F8180124
:10C750006C69B5F81A310A680E4604441B1A17684A
:10C7600095F81C119BB222463046B84750B32218A8
:10C7700094423CD2766806E0052B25D023780BB393
:10C780001C44A24233D96378042BF5D1E378002B03
:10C79000F4D195F81C11013185F81C11002EEDD053
:10C7A00095F840110729E9D801F1480745F82760B5
:10C7B000217295F84011013185F840111E46237809
:10C7C000002BDDD10020F8BD94F90230002B08DBEE
:10C7D00095F81E31591C85F81E11A1780B43A370E2
:10C7E000CCE795F81D31591C85F81D11F5E7B5F812
:10C7F00018216B69104480B2A5F81801588095F88B
:10C800001C211A710120F8BD2DE9F043284DDFF8F5
:10C81000B090AC4604468846BCE80F0089B003AF30
:10C820000FC703AE0FCE05F1140E25460FC59EE8C7
:10C830000700DCF800303B806B4636682E8003C36F
:10C840006B4603CB1B4EA06104F118034FF4807CB0
:10C850000125E16184F82020636140F2EF2200238A
:10C860001548C4F8189140F209470421A4F81CC1E6
:10C87000C4F8280184F84011A280C4F82C31C4F80F
:10C880003031C4F83431C4F83831C4F83C314FF495
:10C89000E131C4E94876094884F81E51A571FFF7D3
:10C8A000FFFE404600F050FA284609B0BDE8F0838C
:10C8B0005446040038460400D84304002C7200207B
:10C8C000090000012DE9F04F04468BB0002900F06B
:10C8D0009180032900F09C8090F840318B4240F217
:10C8E000CB80483100F5A27550F821603278002ADB
:10C8F00000F0E78000231946374603E00131725CFF
:10C900007718CAB102F14000C0B20128F6D9F42A62
:10C91000F4D8100618D40120A2F55847B7F5006FD7
:10C92000ECD30144202B00F0C98025F81320725C61
:10C9300001337718002AE5D1DBB201335B0043F401
:10C94000407304F5A17C5DE002F0E000C02800F037
:10C95000A18002F0F000E02800F0918002F0F800E1
:10C96000F028CBD102F007024FF0040E787800F0E7
:10C97000C00CBCF1800FC1D197F802C00CF0C00808
:10C9800000F03F00B8F1800F40EA8212B6D10CF0FF
:10C990003F0CBEF1030F4CEA821275D0F87800F01C
:10C9A000C007802FAAD100F03F0040EA8212A2F512
:10C9B0008030B0F5801F38BF4FF0040E9ED2A2F534
:10C9C0005840B0F5006F99D3B2F5803F7144A9D3B8
:10C9D0001E2BB1DCA2F580325800970A2844C2F31E
:10C9E0000902A7F52057A2F5105225F813704280CE
:10C9F000023384E7D0F82031A0F8443100F5A17C5F
:10CA00004FF44173A4F8423160460BB0BDE8F08F9B
:10CA100002A800F0ADF904F5A17C019020B300F16B
:10CA2000FF3B5FFA8BF3284F04F1040B0DF1080A6A
:10CA30000BEB830BA64606AE97E80F001AF8018BA6
:10CA400086E80F0008F00F090AADA94405EB181895
:10CA500019F8109C18F8103CAEF84691AEF8443125
:10CA60000EF1040EDE45E7D1019B5B00DBB2013322
:10CA70005B0043F44073C5E74FF0000CC4E702F0DD
:10CA80000F024FF0030E71E7A2F50060B0F5784F8A
:10CA900095D333E7787800F0C007802F02F01F02AB
:10CAA0007FF42CAF00F03F0040EA8212A2F1800038
:10CAB000B0F5F06FBFF422AF02202DE740F2423311
:10CAC0003FE740F202333CE740460400004870472D
:10CAD0004C720020014B5869704700BF4C72002017
